{
  "_format": "hh-sol-artifact-1",
  "contractName": "RelayOrderReactor",
  "sourceName": "src/reactors/RelayOrderReactor.sol",
  "abi": [
    {
      "inputs": [
        {
          "internalType": "address",
          "name": "_universalRouter",
          "type": "address"
        }
      ],
      "stateMutability": "nonpayable",
      "type": "constructor"
    },
    {
      "inputs": [],
      "name": "DeadlineBeforeEndTime",
      "type": "error"
    },
    {
      "inputs": [],
      "name": "DeadlinePassed",
      "type": "error"
    },
    {
      "inputs": [],
      "name": "EndTimeBeforeStartTime",
      "type": "error"
    },
    {
      "inputs": [],
      "name": "InvalidAmounts",
      "type": "error"
    },
    {
      "inputs": [],
      "name": "InvalidReactor",
      "type": "error"
    },
    {
      "inputs": [],
      "name": "UnsafeCast",
      "type": "error"
    },
    {
      "anonymous": false,
      "inputs": [
        {
          "indexed": true,
          "internalType": "bytes32",
          "name": "orderHash",
          "type": "bytes32"
        },
        {
          "indexed": true,
          "internalType": "address",
          "name": "filler",
          "type": "address"
        },
        {
          "indexed": true,
          "internalType": "address",
          "name": "swapper",
          "type": "address"
        },
        {
          "indexed": false,
          "internalType": "uint256",
          "name": "nonce",
          "type": "uint256"
        }
      ],
      "name": "Fill",
      "type": "event"
    },
    {
      "inputs": [],
      "name": "PERMIT2",
      "outputs": [
        {
          "internalType": "contract IPermit2",
          "name": "",
          "type": "address"
        }
      ],
      "stateMutability": "view",
      "type": "function"
    },
    {
      "inputs": [
        {
          "components": [
            {
              "internalType": "bytes",
              "name": "order",
              "type": "bytes"
            },
            {
              "internalType": "bytes",
              "name": "sig",
              "type": "bytes"
            }
          ],
          "internalType": "struct SignedOrder",
          "name": "signedOrder",
          "type": "tuple"
        },
        {
          "internalType": "address",
          "name": "feeRecipient",
          "type": "address"
        }
      ],
      "name": "execute",
      "outputs": [],
      "stateMutability": "nonpayable",
      "type": "function"
    },
    {
      "inputs": [
        {
          "internalType": "bytes[]",
          "name": "data",
          "type": "bytes[]"
        }
      ],
      "name": "multicall",
      "outputs": [
        {
          "internalType": "bytes[]",
          "name": "results",
          "type": "bytes[]"
        }
      ],
      "stateMutability": "nonpayable",
      "type": "function"
    },
    {
      "inputs": [
        {
          "internalType": "contract ERC20",
          "name": "token",
          "type": "address"
        },
        {
          "internalType": "address",
          "name": "owner",
          "type": "address"
        },
        {
          "internalType": "address",
          "name": "spender",
          "type": "address"
        },
        {
          "internalType": "uint256",
          "name": "amount",
          "type": "uint256"
        },
        {
          "internalType": "uint256",
          "name": "deadline",
          "type": "uint256"
        },
        {
          "internalType": "uint8",
          "name": "v",
          "type": "uint8"
        },
        {
          "internalType": "bytes32",
          "name": "r",
          "type": "bytes32"
        },
        {
          "internalType": "bytes32",
          "name": "s",
          "type": "bytes32"
        }
      ],
      "name": "permit",
      "outputs": [],
      "stateMutability": "nonpayable",
      "type": "function"
    },
    {
      "inputs": [],
      "name": "universalRouter",
      "outputs": [
        {
          "internalType": "address",
          "name": "",
          "type": "address"
        }
      ],
      "stateMutability": "view",
      "type": "function"
    }
  ],
  "bytecode": "0x60a03461007057601f61188b38819003918201601f19168301916001600160401b038311848410176100755780849260209460405283398101031261007057516001600160a01b0381168103610070576080526040516117ff908161008c823960805181818160f4015261071f0152f35b600080fd5b634e487b7160e01b600052604160045260246000fdfe6080604052600436101561001257600080fd5b6000803560e01c90816335a9e4df146100af5781636afdd8501461006557508063ac9650d814610060578063d339056d1461005b5763e956bbdf1461005657600080fd5b6105ea565b6102bb565b610215565b346100ac57807ffffffffffffffffffffffffffffffffffffffffffffffffffffffffffffffffc3601126100ac5760206040516e22d473030f116ddee9f6b43ac78ba38152f35b80fd5b346100ac57807ffffffffffffffffffffffffffffffffffffffffffffffffffffffffffffffffc3601126100ac5773ffffffffffffffffffffffffffffffffffffffff7f00000000000000000000000000000000000000000000000000000000000000001660805260206080f35b600091031261012857565b600080fd5b60005b8381106101405750506000910152565b8181015183820152602001610130565b907fffffffffffffffffffffffffffffffffffffffffffffffffffffffffffffffe0601f60209361018c8151809281875287808801910161012d565b0116010190565b6020808201906020835283518092526040830192602060408460051b8301019501936000915b8483106101c95750505050505090565b9091929394958480610205837fffffffffffffffffffffffffffffffffffffffffffffffffffffffffffffffc086600196030187528a51610150565b98019301930191949392906101b9565b346101285760207ffffffffffffffffffffffffffffffffffffffffffffffffffffffffffffffffc3601126101285767ffffffffffffffff6004358181116101285736602382011215610128578060040135918211610128573660248360051b830101116101285761029991602461028d92016109e0565b60405191829182610193565b0390f35b73ffffffffffffffffffffffffffffffffffffffff81160361012857565b34610128576101007ffffffffffffffffffffffffffffffffffffffffffffffffffffffffffffffffc360112610128576004356102f78161029d565b6024356103038161029d565b60443561030f8161029d565b60a43560843560643560ff831683036101285760c4359360e435956040516020808201917f3644e51500000000000000000000000000000000000000000000000000000000835260048152610363816107c0565b60009283838d829373ffffffffffffffffffffffffffffffffffffffff82169573c02aaa39b223fe8d0a0e5c4f27ead9083c756cc287036105ca575b505050506103bd575b505050156103b257005b6103bb976113e6565b005b919250907fdbb8cf42e1ecb028be3f3dbc922e1d878b963f411dc388ced501601c60f7c6f70361053f576040517f7ecebe0000000000000000000000000000000000000000000000000000000000815273ffffffffffffffffffffffffffffffffffffffff84166004820152908290829060249082905afa91821561053a57866104fb6000948594859161050d575b506040517f8fcbaf0c000000000000000000000000000000000000000000000000000000008582015273ffffffffffffffffffffffffffffffffffffffff80891660248301528916604482015260648101919091526084810192909252600160a483015260ff8a1660c483015260e482018b905261010482018c90528161012481015b037fffffffffffffffffffffffffffffffffffffffffffffffffffffffffffffffe08101835282610815565b905b81519101828c5af13880806103a8565b61052d9150843d8611610533575b6105258183610815565b810190610c6c565b3861044c565b503d61051b565b610c7b565b506040517fd505accf000000000000000000000000000000000000000000000000000000008183015273ffffffffffffffffffffffffffffffffffffffff808416602483015284166044820152606481018590526084810186905260ff871660a482015260c4810188905260e4810189905260009182916105c48161010481016104cf565b906104fd565b5192945090611388fa823d149351938415151616809390838d388061039f565b34610128577ffffffffffffffffffffffffffffffffffffffffffffffffffffffffffffffffc604081360112610128576004359067ffffffffffffffff8211610128576040826004019183360301126101285761068960243561064c8161029d565b61068161066461065c85806108c6565b810190610ba6565b9361066e85610c87565b602461067986610e63565b9601906108c6565b91858561115e565b606081015180519081610714575b5050519060406106be602084015173ffffffffffffffffffffffffffffffffffffffff1690565b920151907f78ad7ec0e9f89e74012afa58738b6b661c024cb0fd185ee2f616c0a28924bd6673ffffffffffffffffffffffffffffffffffffffff6040519416938061070f3395829190602083019252565b0390a4005b6000916020839201827f00000000000000000000000000000000000000000000000000000000000000005af161074861097f565b90156107545780610697565b602081519101fd5b7f4e487b7100000000000000000000000000000000000000000000000000000000600052604160045260246000fd5b6080810190811067ffffffffffffffff8211176107a757604052565b61075c565b67ffffffffffffffff81116107a757604052565b6040810190811067ffffffffffffffff8211176107a757604052565b6060810190811067ffffffffffffffff8211176107a757604052565b610120810190811067ffffffffffffffff8211176107a757604052565b90601f7fffffffffffffffffffffffffffffffffffffffffffffffffffffffffffffffe0910116810190811067ffffffffffffffff8211176107a757604052565b60405190610863826107dc565b565b604051906108638261078b565b60405190610863826107c0565b67ffffffffffffffff81116107a75760051b60200190565b7f4e487b7100000000000000000000000000000000000000000000000000000000600052603260045260246000fd5b9035907fffffffffffffffffffffffffffffffffffffffffffffffffffffffffffffffe181360301821215610128570180359067ffffffffffffffff82116101285760200191813603831361012857565b908210156109325761092e9160051b8101906108c6565b9091565b610897565b908092918237016000815290565b67ffffffffffffffff81116107a757601f017fffffffffffffffffffffffffffffffffffffffffffffffffffffffffffffffe01660200190565b3d156109aa573d9061099082610945565b9161099e6040519384610815565b82523d6000602084013e565b606090565b8051156109325760200190565b8051600110156109325760400190565b80518210156109325760209160051b010190565b9190916109ec8361087f565b9060406109fc6040519384610815565b8483527fffffffffffffffffffffffffffffffffffffffffffffffffffffffffffffffe0610a298661087f565b0160005b818110610a99575050829460005b818110610a49575050505050565b600080610a57838588610917565b90610a66875180938193610937565b0390305af4610a7361097f565b90156107545790600191610a8782886109cc565b52610a9281876109cc565b5001610a3b565b806060602080938801015201610a2d565b9190826060910312610128576040516060810181811067ffffffffffffffff8211176107a75760405260408082948035610ae38161029d565b845260208101356020850152013591610afb8361029d565b0152565b91908260a09103126101285760405160a0810181811067ffffffffffffffff8211176107a75760405260808082948035610b388161029d565b84526020810135602085015260408101356040850152606081013560608501520135910152565b81601f8201121561012857803590610b7682610945565b92610b846040519485610815565b8284526020838301011161012857816000926020809301838601378301015290565b9060208282031261012857813567ffffffffffffffff92838211610128570190818103926101a0841261012857608060405194610be28661078b565b1261012857604051610bf38161078b565b8335610bfe8161029d565b81526020840135610c0e8161029d565b602082015260408401356040820152606084013560608201528452610c368260808501610aaa565b6020850152610c488260e08501610aff565b604085015261018083013590811161012857610c649201610b5f565b606082015290565b90816020910312610128575190565b6040513d6000823e3d90fd5b60608151015160806040830151015111610ce557515173ffffffffffffffffffffffffffffffffffffffff163003610cbb57565b60046040517f4ddf4a64000000000000000000000000000000000000000000000000000000008152fd5b60046040517f773a6187000000000000000000000000000000000000000000000000000000008152fd5b6040517f52656c61794f726465722800000000000000000000000000000000000000000060208201527f616464726573732072656163746f722c00000000000000000000000000000000602b8201527f6164647265737320737761707065722c00000000000000000000000000000000603b8201527f6164647265737320696e707574526563697069656e742c000000000000000000604b8201527f75696e74323536206665655374617274416d6f756e742c00000000000000000060628201527f75696e7432353620666565537461727454696d652c000000000000000000000060798201527f75696e7432353620666565456e6454696d652c00000000000000000000000000608e8201527f627974657320756e6976657273616c526f7574657243616c6c6461746129000060a1820152609f815260c0810181811067ffffffffffffffff8211176107a75760405290565b610e6b610d0f565b80516020809201209180519073ffffffffffffffffffffffffffffffffffffffff808481855116940151169060408584015101511690604083015191858301519160606080818601519501519501518781519101209560405197880198895260408801526060870152608086015260a085015260c084015260e083015261010090818301528152610efb816107f8565b51902090565b610fbd610fcc6033610f11610d0f565b604051610f1d816107dc565b602e815260208101907f546f6b656e5065726d697373696f6e73286164647265737320746f6b656e2c7582527f696e7432353620616d6f756e742900000000000000000000000000000000000060408201526040519586937f52656c61794f72646572207769746e65737329000000000000000000000000006020860152610fae815180926020898901910161012d565b8401915180938684019061012d565b01036013810184520182610815565b90565b90815180825260208080930193019160005b828110610fef575050505090565b909192938260408261102460019489516020809173ffffffffffffffffffffffffffffffffffffffff81511684520151910152565b01950193929101610fe1565b601f82602094937fffffffffffffffffffffffffffffffffffffffffffffffffffffffffffffffe0938186528686013760008582860101520116010190565b9593909796949160c087526101208701988051606060c08a01528051809b5261014089019a60208092019160005b82811061111c57505050506110dd610fcc999a61110e969594936040848c60e060206110fc98015191015201516101008c01528a820360208c0152610fcf565b73ffffffffffffffffffffffffffffffffffffffff9094166040890152565b60608701528582036080870152610150565b9260a0818503910152611030565b9091929c8260408f9261115281600195516020809173ffffffffffffffffffffffffffffffffffffffff81511684520151910152565b019e019392910161109d565b939093604080519361116f856107dc565b6002855260005b8281106112d15750602061121261124e9282860151836111aa825173ffffffffffffffffffffffffffffffffffffffff1690565b9101516111d46111b8610872565b73ffffffffffffffffffffffffffffffffffffffff9093168352565b848201526111e1896109af565b526111eb886109af565b506111f8858701516116b2565b611201896109bc565b5261120b886109bc565b50856115c1565b93805160608582015191015190611227610856565b988952838901528488015251015173ffffffffffffffffffffffffffffffffffffffff1690565b93611257610f01565b916e22d473030f116ddee9f6b43ac78ba394853b156101285760009788946112ad93519a8b998a9889977ffe8ec1a70000000000000000000000000000000000000000000000000000000089526004890161106f565b03925af1801561053a576112be5750565b806112cb610863926107ac565b8061011d565b6020906112dc6115a8565b82828901015201611176565b519065ffffffffffff8216820361012857565b908160609103126101285780516113118161029d565b91610fcc6040611323602085016112e8565b93016112e8565b92917fff00000000000000000000000000000000000000000000000000000000000000916040519460208601526040850152166060830152604182526108638261078b565b6040610fcc94936101009373ffffffffffffffffffffffffffffffffffffffff8091168452815181815116602086015281602082015116848601526060848201519165ffffffffffff80931682880152015116608085015260208201511660a0840152015160c08201528160e08201520190610150565b6040517f927da10500000000000000000000000000000000000000000000000000000000815273ffffffffffffffffffffffffffffffffffffffff8381166004830152918216602482018190529184166044820152909791966e22d473030f116ddee9f6b43ac78ba39690959294909391906060826064818b5afa91821561053a57600092611570575b5061147a90611667565b611482610865565b73ffffffffffffffffffffffffffffffffffffffff909a168a5273ffffffffffffffffffffffffffffffffffffffff1660208a015265ffffffffffff60408a015265ffffffffffff1660608901526114d8610856565b97885273ffffffffffffffffffffffffffffffffffffffff166020880152604087015260f81b7fff00000000000000000000000000000000000000000000000000000000000000169061152a9261132a565b90803b15610128576112ad9360008094604051968795869485937f2b67b5700000000000000000000000000000000000000000000000000000000085526004850161136f565b61147a9192506115979060603d6060116115a1575b61158f8183610815565b8101906112fb565b9150509190611470565b503d611585565b604051906115b5826107c0565b60006020838281520152565b9190604090604051916115d3836107dc565b6002835260005b8181106116505750509061163e61164d92604083966020810151602073ffffffffffffffffffffffffffffffffffffffff848301511691015161161e6111b8610872565b602082015261162c866109af565b52611636856109af565b5001516116ef565b611647826109bc565b526109bc565b50565b60209061165b6115a8565b828287010152016115da565b73ffffffffffffffffffffffffffffffffffffffff90818111611688571690565b60046040517fc4bd89a9000000000000000000000000000000000000000000000000000000008152fd5b6116ba6115a8565b50604073ffffffffffffffffffffffffffffffffffffffff825116910151604051916116e5836107c0565b8252602082015290565b6116f76115a8565b50602081015160408201519160806060820151910151908383116000146117425760046040517fd856fc5a000000000000000000000000000000000000000000000000000000008152fd5b808210156117745760046040517f43133453000000000000000000000000000000000000000000000000000000008152fd5b428211611792575050505b61178a6111b8610872565b602082015290565b9192909190834283106117a8575050505061177f565b826117b8940392420391036117be565b0161177f565b817fffffffffffffffffffffffffffffffffffffffffffffffffffffffffffffffff0481118202158302156101285702049056fea164736f6c6343000818000a",
  "linkReferences": {},
  "deployedLinkReferences": {}
}